S01000006E6F6D696E616C322E73726563F4
S1130000DAC30000F7C30000F5C30000F3C3000027
S1130010F1C30000EFC30000EDC30000EBC3000018
S1130020E9C30000E7C30000E5C30000E3C3000028
S1130030E1C30000DFC30000DDC30000DBC3000038
S1130040D9C30000D7C300000C947E0BD3C30000B7
S1130050D1C30000CFC30000CDC30000CBC3000058
S1130060C9C30000C7C30000C5C30000C3C3000068
S1130070C1C30000BFC30000BDC30000BBC3000078
S1130080B9C30000B7C30000B5C30000036EDB367C
S11300903D9A9999993DABAAAA2A3E000000803F57
S11300A0084AD73B3BCE016E84BCBFFDC12F3D6CDB
S11300B074319ABD56833DDA3D00C77F11BED9E441
S11300C0BB4C3E916BAAAABE000000803F072C7A6D
S11300D0A5BA6CC590DA3B9365FC8BBC53F810FD54
S11300E03C5692834DBD879D3AB63DCBC9BF5BBE9E
S11300F073DA0FC93F05A84CCDB2D44EB93836A92E
S1130100020C50B9918688083CA6AAAA2ABE00000F
S113011000803F07634236B79BD8A71A3968561840
S1130120AEBAAB558C1D3CB7CC5763BD6DEDFD75B8
S11301303EF6177231BF000000803F08000000BE89
S1130140922449123EABAAAA2ABECDCCCC4C3E0086
S1130150000080BEABAAAAAA3E00000000BF0000B7
S113016000803F0000000000084178D3BB4387D1E2
S1130170133D190E3CC3BD4282AD2B3E68EC827622
S1130180BED98FE1A93E4C80EFFFBE01C4FF7F3F83
S113019000000000000000000000CDCC2441CDCCC4
S11301A09041CDCCD4C133330BC1333353C033333B
S11301B0DBC1666606409A9961C19A99594000006C
S11301C0B0C033330341333333BFCDCCCCBE9A9963
S11301D021C16666E63F333333BFCDCC4C3E666601
S11301E0A6BF9A9911C19A99A940333383409A9929
S11301F039409A9989C06666A6C0CDCC4CBE000031
S1130200003F9A99193F6666A6BF9A99D93FCDCC0B
S1130210CCBD9A9999BF3333B33F9A9959409A996F
S11302207940000000009A9999BECDCCCCBD000065
S11302300000333333BF666606C066660640333358
S113024033BF9A9999BFCDCC4C3E9A99993E666634
S1130250663FCDCCCC3F0000803F9A99993ECDCCEF
S11302604CBECDCC4C3F000000BFCDCCCC3E66662E
S1130270A63FCDCC4CBECDCCCC3D9A9999BE9A9993
S113028019BF9A9919BFCDCC4CBFCDCCCC3DCDCCA8
S11302904C3ECDCC4CBECDCC4C3E000000009A99D7
S11302A099BE9A9919BF9A99993E0000003FCDCC06
S11302B0CC3DCDCC4CBE0000003FCDCCCC3ECDCC13
S11302C04CBECDCCCC3D9A9999BECDCCCCBE9A999E
S11302D0993E9A99993E0000000000000000000039
S11302E0000000000000000000000000000000000A
S11302F000000000000000000000000000000000FA
S113030000000000000000000000000000000000E9
S113031000000000000000000000000000000000D9
S113032000000000000000000000000000000000C9
S113033000000000000000000000000000000000B9
S113034000000000000000000000000000000000A9
S11303500000000000000000000000000000000099
S11303600000000000000000000000000000000089
S11303700000000000000000000000000000000079
S11303800000000000000000000000000000000069
S11303900000000000000000000000000000000059
S11303A00000000000000000000000000000000049
S11303B00000000000000000000000000000000039
S11303C00000000000000000000000000000000029
S11303D00000000000000000000000000000000019
S11303E00000000000000000000000000000000009
S11303F000000000000000000000000000000000F9
S113040000000000000000000000000000000000E8
S113041000000000000000000000000000000000D8
S113042000000000000000000000000000000000C8
S113043000000000000000000000000000000000B8
S113044000000000000000000000000000000000A8
S11304500000000000000000000000000000000098
S11304600000000000000000000000000000000088
S11304700000000000000000000000000000000078
S11304800000000000000000000000000000000068
S11304900000000000000000000000000000000058
S11304A0000000000000000000000004E6C600A0F8
S11304B0BBC4CDE895459AD118C5664E3C459AD93A
S11304C031C56696D1449A7920C466D6A844CD0431
S11304D013C59A99E6C23333994466E6744300809F
S11304E011449A9906C466E66244CD6C4B4466A6F0
S11304F08D43CDCCF04233B33CC33373A7C366E61C
S11305003443CDCC8C4200C0A4C39A9968C3CD0CAB
S1130510B44333333D42666640430000454366E6D8
S11305200CC39A99EEC200801DC30000804133338E
S113053083406666C84200008C42666687426666EF
S1130540A6C166669142CDCC044266E601C39A997F
S11305506B423333E7C1666685C2333353419A999C
S1130560E940CDCC8DC266667A423333A34233333D
S113057098C2666658C29A99D9C000009CC13333A8
S11305804F426666B640000070413333C34166662D
S113059016419A995940333333C03333DBC19A99A6
S11305A0D940CDCC0CC09A99C141CDCC0C419A997B
S11305B02141333387C1666692C1CDCC4CC0CDCCCA
S11305C05441CDCCA4C19A9969C1666656419A99A1
S11305D0814133333B416666B64066667EC19A9973
S11305E011C1000000C066660640CDCCAC40CDCC45
S11305F00C41CDCCACC166664640CDCC2C413333E6
S113060053C0CDCC3C413333333F9A99D9C0CDCC80
S113061054C1CDCCDCC0CDCCCCBD9A99F940333398
S11306200B410000803F9A9911C1000080C0000076
S113063028C1666606413333F3BF9A99C9C0CDCC4D
S11306404C40CDCCCC3DCDCCCCBE0000003F3333B0
S11306509340000000BFCDCC8C406666E63FCDCC15
S1130660FCC0333333BF9A9919BF66660640666689
S113067086C09A991940333333C06666E6BF9A99A7
S113068099BF666666C033330BC166664640000098
S1130690C0BFCDCCCCBD333313C00000004000003C
S11306A00040333333BFCDCC4CBFCDCC8CBF9A99F3
S11306B0193FCDCC4C3F333333BFCDCC4CBECDCC26
S11306C04C3ECDCC0CC09A99D93F3333B3BFCDCC7B
S11306D04CBE000020C0CDCCCC3E000000C00000C9
S11306E060409A9919C03333F3BFCDCC4CBECDCC06
S11306F08CBFCDCCCC3ECDCCCC3E9A99993F3333F4
S1130700F33FCDCC4CBFCDCC0CC06666663F9A9906
S1130710993ECDCCCC3D3333333F0000003FCDCCAC
S1130720CCBD9A9999BE9A99993ECDCCCCBECDCCEC
S11307304C3ECDCC4C3E666666BF666666BFCDCC8D
S1130740CCBD000000003333333F00000000666678
S113075066BF666666BFCDCCCC3ECDCCCC3E000039
S1130760003FCDCCCC3F000000BF000000BF000024
S1130770803F9A9999BFCDCC4CBECDCCCCBDCDCCCD
S11307804C3FCDCCCC3ECDCCCCBDCDCCCCBD9A99C0
S1130790993ECDCCCC3ECDCCCC3D0000003F0000FA
S11307A0003F9A9999BECDCCCCBECDCCCCBE9A9903
S11307B099BECDCC4CBF11241FBECFEFD0E1DEBF1C
S11307C0CDBF11E0A0E0B1E0EAE3F4E500E00BBF47
S11307D002C007900D92A036B107D9F724E0A0E635
S11307E0B1E001C01D92A938B207E1F70E940E17CB
S11307F00C941B2A05CC3F924F925F926F927F928A
S11308008F929F92AF92BF92CF92DF92EF92FF921C
S11308100F931F93CF93DF938C01EC01312C23E3CF
S1130820422E542C23E7622E2FEB722E888099805F
S1130830AA80BB8075016401E894F7F823E333E3ED
S113084043E75FE3C701B6010E94AD27181694F48D
S1130850A5019401C701B6010E949A2520E030E069
S113086040E85FEB0E9493258111C7C048825982FA
S11308706A827B823394249683E03812D7CF40ED8A
S113088059ED60EC7EE3C8010E948319E801712CE4
S113089088809980AA80BB8075016401E894F7F888
S11308A020E030E040E85FE3C701B6010E94AD27D5
S11308B01816B4F4A5019401C701B6010E949A2543
S11308C020E030E040E85FEB0E94932581118CC06A
S11308D080E090E0A0E8BFEB88839983AA83BB8380
S11308E073942496E3E07E12D3CFF801C080D180C4
S11308F0E280F38020E030E0A901C701B6010E9444
S1130900AD2720E03FEF4FE757E487FD7FC0C701E5
S1130910B6010E94B8270E94072670936C04609366
S11309206B0420E03FEF4FE757E4F80164817581E1
S1130930868197810E94B8270E9402269B0177FD39
S11309407EC030936E0420936D0420E03FEF4FE7A8
S113095057E4F80160857185828593850E94B827E4
S11309600E9402269B0177FD65C03093700420939A
S11309706F0420E030E0A901C701B6010E9493256D
S113098087FD54C01092710420E030E0A901F80101
S113099064817581868197810E94932587FD42C079
S11309A01092720420E030E0A901F801608571859D
S11309B0828593850E94932587FD46C01092730417
S11309C080EA8BBBDF91CF911F910F91FF90EF9045
S11309D0DF90CF90BF90AF909F908F907F906F905B
S11309E05F904F903F90089580E090E0A0E8BFE3CF
S11309F088839983AA83BB8373CF83E393E3A3E7B9
S1130A00BFE388839983AA83BB8334CFC701B6012C
S1130A1090580E94B8270E94072670936C04609334
S1130A206B047FCF81E080937204BCCF81E080931C
S1130A307104AACF22273327261B370B96CF2227F0
S1130A403327261B370B7DCF81E080937304B8CF07
S1130A500F931F93CF93DF93CDB7DEB7A4970FB651
S1130A60F894DEBF0FBECDBF0E94381A80916B048C
S1130A7090916C0400916B0410916C0400917104CA
S1130A8099270E949F24812F90E00E949F24802F09
S1130A9090E00E949F2480916D0490916E040091D7
S1130AA06D0410916E040091720499270E949F2492
S1130AB0812F90E00E949F24802F90E00E949F2429
S1130AC080916F049091700400916F0410917004F0
S1130AD00091730499270E949F24812F90E00E9423
S1130AE09F24802F90E00E949F248091580490912D
S1130AF05904A0915A04B0915B0480937D019093B2
S1130B007E01A0937F01B093800180915C04909159
S1130B105D04A0915E04B0915F0480938101909381
S1130B208201A0938301B093840180916004909129
S1130B306104A0916204B091630480938501909351
S1130B408601A0938701B09388018AE590E00E9412
S1130B509F240E94341A5799FECF80910601813058
S1130B6009F462C084E690E00E949F240E94361A31
S1130B700E942D1CCE010D960E94BC1CCE01019634
S1130B800E94881D20E031E041E651E0BE01635F30
S1130B907F4FCE0101960E94071E8093600161E79A
S1130BA071E081E691E00E943D21609160018091B5
S1130BB00001689FB0011124882777FD8095982F44
S1130BC00E943526AB01BC0181E791E00E948319A4
S1130BD081E691E00E940E1A01E611E0F8016191AC
S1130BE07191819191918F0120E030E048EC52E4C1
S1130BF00E94B8270E940726862F992787FD909583
S1130C000E949F24F1E001371F0741F7CE01499666
S1130C10F2DDA4960FB6F894DEBF0FBECDBFDF9110
S1130C20CF911F910F9108950E94391A9BCF2F9253
S1130C303F924F925F926F927F928F929F92AF9268
S1130C40BF92CF92DF92EF92FF920F931F93CF93B5
S1130C50DF93CDB7DEB729970FB6F894DEBF0FBE8A
S1130C60CDBFE0912B04A0912A04AD83B091290457
S1130C70BF8320902E0430902F04910140E050E077
S1130C8060E070E080E090E003E00E94CD29F22F64
S1130C903A834B8359876E83B72FA82F98870E9476
S1130CA0CD2959016A017B018C012F2F3A814B8197
S1130CB059856E817B2F8A2F98850E94E6295101E0
S1130CC0C12CD12CE12CF12C00E010E00E94E6298B
S1130CD059016A017B01F82F192F04E00E94CD29E4
S1130CE00F2F0E94FB2959016A017B01F82F192F4C
S1130CF004E00E94CD290F2F0E94FB2959016A01AB
S1130D007B01F82F192F04E00E94CD290F2F0E9498
S1130D10FB2907E00E94CD2959016A017B018C015E
S1130D20F0912C04F887A0912D04A250AB3008F068
S1130D301BC1B0E0AA0FBB1FAA0FBB1FAA0FBB1F8A
S1130D40A85FBE4F5C9011964C90119712963C9000
S1130D50129713962C90139714962C911497298319
S1130D6015968C9115978A831696FC911697FB839A
S1130D7017962C912E832E2F30E040E050E060E057
S1130D8070E080E090E020583C4544495B4C6E4064
S1130D907109810991090E94E62939014A016C838C
S1130DA0B72FA82FF92F2F8130E040E050E060E00A
S1130DB070E080E090E004E00E94CD29AF80B12C87
S1130DC0C12CD12CE12CF12C00E010E00E94FB2975
S1130DD059016A017B01E82F192F04E00E94CD29F3
S1130DE00E2F0E94FB2904E00E94CD2959016A01BB
S1130DF07B018C019301A4016C817B2F8A2F9F2F8F
S1130E000E94E629B22EC32ED42E652E762E872E6E
S1130E10982E9C83AD816A2F70E080E090E02CE3F3
S1130E2030E040E050E00E94A629A22EA32FF42F28
S1130E30E52F7B018C012B2D3C2D4D2D562D672D3F
S1130E40782D892D9C81BA2ECF2EDE2E0E94E62984
S1130E5039014A01B62F7C83F82FE92F288530E029
S1130E6040E050E060E070E080E090E0AFEF0E948E
S1130E70EF29A52CB42CC32CD22CE980FA800B8149
S1130E801E810E94E62959016A017B01A82F192FAE
S1130E9002E00E94CD290A2F0E94FB2959016A0110
S1130EA07B01A82F192F04E00E94CD290A2F0E944C
S1130EB0FB2959016A017B01A82F192F04E00E9424
S1130EC0CD290A2F0E94FB2907E00E94CD29590150
S1130ED06A017B018C019301A4016B2F7C818F2F0C
S1130EE09E2F0E94E6292093F5033093F603409346
S1130EF0F7035093F8036093F9037093FA03809314
S1130F00FB039093FC032C5E34414846510961096C
S1130F107109810991092093FD033093FE034093E5
S1130F20FF035093000460930104709302048093C0
S1130F3003049093040429960FB6F894DEBF0FBE01
S1130F40CDBFDF91CF911F910F91FF90EF90DF9074
S1130F50CF90BF90AF909F908F907F906F905F9055
S1130F604F903F902F900895512C412C312C212CDF
S1130F7019821A821B821E82FECE4F925F926F925A
S1130F807F92AF92BF92CF92DF92EF92FF920F9334
S1130F901F93CF93DF93CDB7DEB7A4970FB6F89422
S1130FA0DEBF0FBECDBF8C015B012091FD033091EC
S1130FB0FE034091FF03509100046091010470917D
S1130FC0020480910304909104040E94702627EB8C
S1130FD039E540E85FE30E94B8272EEB37EF48E994
S1130FE058E30E94B8272B013C010E9497256B010E
S1130FF07C0169837A838B839C83C301B2010E9441
S113100067286D837E838F83988719861A861B864B
S11310101C86DC01CB01B0588D879E87AF87B88BC7
S1131020C98ADA8AEB8AFC8A1D8A1E8A1F8A188E6C
S1131030198E1A8E1B8E1C8E1D8E1E8E1F8E18A24C
S113104080E090E0A0E8BFE389A39AA3ABA3BCA38C
S1131050A501BE016F5F7F4FC8010E94A318A4962B
S11310600FB6F894DEBF0FBECDBFDF91CF911F91B5
S11310700F91FF90EF90DF90CF90BF90AF907F9053
S11310806F905F904F9008954F925F926F927F920E
S1131090AF92BF92CF92DF92EF92FF920F931F9382
S11310A0CF93DF93CDB7DEB7A4970FB6F894DEBF26
S11310B00FBECDBF8C015B012091FD033091FE0377
S11310C04091FF0350910004609101047091020467
S11310D080910304909104040E94702627EB39E563
S11310E040E85FE30E94B8272EEB37EF48E958E366
S11310F00E94B8272B013C010E9497256B017C01BB
S113110069837A838B839C83C301B2010E9467281D
S11311102B013C0177FA709477F870944D825E82CB
S11311206F82788619861A861B861C866D877E8751
S11311308F87988BC98ADA8AEB8AFC8A1D8A1E8A71
S11311401F8A188E198E1A8E1B8E1C8E1D8E1E8E53
S11311501F8E18A280E090E0A0E8BFE389A39AA3C1
S1131160ABA3BCA3A501BE016F5F7F4FC8010E9462
S1131170A318A4960FB6F894DEBF0FBECDBFDF91BF
S1131180CF911F910F91FF90EF90DF90CF90BF9080
S1131190AF907F906F905F904F900895CF92DF92C1
S11311A0EF92FF920F931F93CF93DF93CDB7DEB7E8
S11311B0C854D1090FB6F894DEBF0FBECDBF8C0161
S11311C0CB017A016901AE014F5C5F4FB8010E9407
S11311D00219CE01C1960E94D919F801808191812A
S11311E0A281B381B0588DA39EA3AFA3B8A74481B5
S11311F0558166817781705849A75AA76BA77CA748
S113120080859185A285B385B0588DA79EA7AFA789
S1131210B8ABCE0185960E94D919AE01435C5F4FED
S1131220BE016B5D7F4FCE01C1960E940219CE01B3
S1131230CD960E94D91921968CAD9DADAEADBFADB2
S1131240219789839A83AB83BC8389A99AA9ABA983
S1131250BCA98D839E83AF83B8878DA19EA1AFA1C6
S1131260B8A589879A87AB87BC8725968CAD9DAD39
S1131270AEADBFAD25978D879E87AF87B88B8DA9FF
S11312809EA9AFA9B8AD898B9A8BAB8BBC8B89A572
S11312909AA5ABA5BCA58D8B9E8BAF8BB88F2996D9
S11312A08CAD9DADAEADBFAD2997898F9A8FAB8FB5
S11312B0BC8F89AD9AADABADBCAD8D8F9E8FAF8F1A
S11312C0B8A30DA51EA52FA538A909A31AA32BA35E
S11312D03CA3A601BE016F5F7F4FC7010E94A31804
S11312E0C85BDF4F0FB6F894DEBF0FBECDBFDF91F2
S11312F0CF911F910F91FF90EF90DF90CF900895C1
S11313002F923F924F925F926F927F928F929F9211
S1131310AF92BF92CF92DF92EF92FF921F93CF933F
S1131320DF93CDB7DEB760970FB6F894DEBF0FBE7C
S1131330CDBF1B01DC018D909D90AD90BC901397A7
S11313401496CD90DD90ED90FC90179718968D91A2
S11313509D910D90BC91A02D8D839E83AF83B88702
S1131360A5019401C701B6010E9440256D877E87BF
S11313708F87988BA5019401C501B4010E94B827F9
S11313804B015C01A7019601C701B6010E94B82771
S11313909B01AC01C501B4010E94B6240E947128CE
S11313A069877A878B879C8725E434E24FE75FE37C
S11313B00E94B8279B01AC016D817E818F81988545
S11313C00E9440254B015C0115E0C501B4010E9457
S11313D0972520E030E040E450E40E941B286B0194
S11313E07C01C501B4010E94672820E030E040E49C
S11313F050E40E941B284B015C012EEA39EC46E2C2
S113140057E4C701B6010E94B8279B01AC01698566
S11314107A858B859C850E94B5246B017C0122E52D
S113142039E547E257E4C501B4010E94B8272D818C
S11314303E814F8158850E94B624A70196010E94DF
S113144040256B017C010E94972569837A838B83F5
S11314509C83C701B6010E9467282B013C0125E447
S113146034E24FE75FE30E94B82729813A814B8138
S11314705C810E9440254B015C01115009F0A5CF0D
S11314802AE83CE54BED5BE3C301B2010E94B827B7
S1131490A30192010E94B8279B01AC0160E070E0B7
S11314A080E89FE30E94B5240E9471289B01AC014F
S11314B062E375EA82EC9AE40E949A254B015C018E
S11314C0F101C082D182E282F3828D859E85AF854F
S11314D0B88984839583A683B78329813A814B8114
S11314E05C8169857A858B859C850E94B8276B0110
S11314F07C012AE83CE54BED5BE3C501B4010E94A5
S1131500B827A30192010E94B8272D813E814F8103
S113151058850E94B624A30192010E94B8279B011A
S1131520AC01C701B6010E94B624A50194010E9432
S1131530B524D10118966D937D938D939C931B973D
S113154060960FB6F894DEBF0FBECDBFDF91CF918A
S11315501F91FF90EF90DF90CF90BF90AF909F903E
S11315608F907F906F905F904F903F902F90089551
S11315702F923F924F925F926F927F928F929F929F
S1131580AF92BF92CF92DF92EF92FF920F931F938D
S1131590CF93DF93CDB7DEB7AC970FB6F894DEBF29
S11315A00FBECDBF1C017B018A01DB014D905D9014
S11315B06D907C90C301B2010E9497256DA37EA318
S11315C08FA398A7F701C480D580E680F780C70170
S11315D0B6010E9497254B015C01C301B2010E9430
S11315E067282B013C01C701B6010E9467286B01E3
S11315F07C0177FA709477F870948DA19EA1AFA1C5
S1131600B8A5B05889A79AA7ABA7BCA7A501940110
S1131610C301B2010E94B82769837A838B839C83B8
S1131620A3019201C701B6010E94B8276D837E838E
S11316308F8398878DA19EA1AFA1B8A589879A872A
S1131640AB87BC87D701C601B0588D879E87AF870B
S1131650B88B898A9A8AAB8ABC8A1D8A1E8A1F8A99
S1131660188EA501940169A57AA58BA59CA50E9455
S1131670B827698F7A8F8B8F9C8F29A53AA54BA5A4
S11316805CA5C701B6010E94B8276D8F7E8F8F8F2E
S113169098A349A25AA26BA27CA2A801BE016F5FC3
S11316A07F4FC1010E94A318AC960FB6F894DEBF19
S11316B00FBECDBFDF91CF911F910F91FF90EF909F
S11316C0DF90CF90BF90AF909F908F907F906F905E
S11316D05F904F903F902F9008951BB81AB8E5E99A
S11316E0F0E01082599A8AB188698AB980818E6043
S11316F0808387E689B91092900008951F920F9213
S11317000FB60F9211242F938F939F93AF93BF9390
S11317108BB390EF89278BBB8CB180938A01809126
S11317208B0190918C01A0918D01B0918E01BA2F03
S1131730A92F982F882780938B0190938C01A093D5
S11317408D01B0938E0180918B0190918C01A091B9
S11317508D01B0918E01882780938B0190938C0129
S1131760A0938D01B0938E0120918A0180918B0109
S113177090918C01A0918D01B0918E01822B809368
S11317808B0190938C01A0938D01B0938E01809175
S113179005018C3008F049C080910501843008F0BF
S11317A0D7C18091050490910604A0910704B091DB
S11317B00804892F9A2FAB2FBB27A7FDBA958093D6
S11317C0050490930604A0930704B0930804809141
S11317D0050490910604A0910704B0910804BB2766
S11317E08093050490930604A0930704B09308041F
S11317F08091050490910604A0910704B091080417
S113180020918A01B22B8093050490930604A0933F
S11318100704B0930804809105018F5F809305014C
S1131820809105018C3009F430C2809104018C3020
S113183008F049C080910401843008F044C18091CB
S1131840110490911204A0911304B0911404892FEF
S11318509A2FAB2FBB27A7FDBA95809311049093C1
S11318601204A0931304B093140480911104909172
S11318701204A0911304B0911404BB2780931104A3
S113188090931204A0931304B09314048091110450
S113189090911204A0911304B091140420918A0130
S11318A0B22B8093110490931204A0931304B09369
S11318B01404809104018F5F8093040180910401DA
S11318C08C3009F4E6C180910301843060F5809185
S11318D003018230F0F08091300490913104892F1B
S11318E0992790933104809330048091300490912F
S11318F0310499279093310480933004809130040B
S11319009091310420918A01922B90933104809319
S11319103004809103018F5F809303018091030160
S1131920843009F4AEC180910201803178F4809151
S11319300201843008F051C1809102018F5F8093CD
S1131940020180910201803109F497C18091010163
S1131950873090F48091010181117DC080918A01CA
S113196080932904809101018F5F8093010180910C
S11319700101873009F491C180918B0190918C0110
S1131980A0918D01B0918E018C3A9440AF43BF4336
S113199009F468C180918B0190918C01A0918D0113
S11319A0B0918E018C3A9540AF43BF4309F45FC1B7
S11319B080918B0190918C01A0918D01B0918E0149
S11319C08C3A9B40AF43BF4309F454C180918B01CF
S11319D090918C01A0918D01B0918E018C3A9E4022
S11319E0AF43BF4309F419C280918B0190918C01DC
S11319F0A0918D01B0918E018C3A9F40AF43BF43BB
S1131A0009F403C28091300490913104843F9140E1
S1131A10C0F4809189018823A1F081E080930601BC
S1131A2057988FEF9FEF9093310480933004109276
S1131A30890110928B0110928C0110928D011092E9
S1131A408E01BF91AF919F918F912F910F900FBEF7
S1131A500F901F90189580910101813009F4D8C12D
S1131A6080910101823009F41BC28091010183300D
S1131A7009F41BC280910101843009F41BC28091D6
S1131A800101853008F46ECF80912E0490912F04CB
S1131A90892F992790932F0480932E0480912E04EC
S1131AA090912F04992790932F0480932E04809172
S1131AB02E0490912F0420918A01922B90932F044D
S1131AC080932E044FCF80910401883008F4ECC039
S1131AD0809104018C3008F0ECCE8091190490912F
S1131AE01A04A0911B04B0911C04892F9A2FAB2FC8
S1131AF0BB27A7FDBA958093190490931A04A09369
S1131B001B04B0931C048091190490911A04A091B1
S1131B101B04B0911C04BB278093190490931A04EE
S1131B20A0931B04B0931C048091190490911A048F
S1131B30A0911B04B0911C0420918A01B22B8093C4
S1131B40190490931A04A0931B04B0931C04B1CEFF
S1131B5080910501883008F41DC1809105018C3005
S1131B6008F059CE80910D0490910E04A0910F04B9
S1131B70B0911004892F9A2FAB2FBB27A7FDBA95DC
S1131B8080930D0490930E04A0930F04B09310045B
S1131B9080910D0490910E04A0910F04B091100453
S1131BA0BB2780930D0490930E04A0930F04B0936D
S1131BB0100480910D0490910E04A0910F04B09133
S1131BC0100420918A01B22B80930D0490930E048B
S1131BD0A0930F04B09310041ECE809102018830AC
S1131BE008F49DC0809102018C3008F019C18091E5
S1131BF0210490912204A0912304B0912404892FFC
S1131C009A2FAB2FBB27A7FDBA95809321049093FD
S1131C102204A0932304B09324048091210490917E
S1131C202204A0912304B0912404BB2780932104AF
S1131C3090932204A0932304B0932404809121045C
S1131C4090912204A0912304B091240420918A014C
S1131C50B22B8093210490932204A0932304B09385
S1131C6024046ACE1092890110920501CBCE109201
S1131C700401C8CE10920301C5CE8FEF80930201F8
S1131C8065CE8FEF809303014ECE8FEF80930501D5
S1131C90CCCD8FEF8093040116CE8FEF809301019A
S1131CA081E08093890168CE809115049091160497
S1131CB0A0911704B0911804892F9A2FAB2FBB273A
S1131CC0A7FDBA958093150490931604A093170466
S1131CD0B09318048091150490911604A0911704F0
S1131CE0B0911804BB278093150490931604A09315
S1131CF01704B09318048091150490911604A091D0
S1131D001704B091180420918A01B22B8093150412
S1131D1090931604A0931704B0931804CACD80912D
S1131D201D0490911E04A0911F04B0912004892FDA
S1131D309A2FAB2FBB27A7FDBA9580931D049093D0
S1131D401E04A0931F04B093200480911D0490915D
S1131D501E04A0911F04B0912004BB2780931D048E
S1131D6090931E04A0931F04B093200480911D043B
S1131D7090911E04A0911F04B091200420918A0127
S1131D80B22B80931D0490931E04A0931F04B09360
S1131D902004D2CD8091090490910A04A0910B04EF
S1131DA0B0910C04892F9A2FAB2FBB27A7FDBA95AE
S1131DB08093090490930A04A0930B04B0930C0439
S1131DC08091090490910A04A0910B04B0910C0431
S1131DD0BB278093090490930A04A0930B04B09347
S1131DE00C048091090490910A04A0910B04B09111
S1131DF00C0420918A01B22B8093090490930A0465
S1131E00A0930B04B0930C0406CD10920101FACDFB
S1131E1080918A0180932A04A5CD10920201F2CD0B
S1131E2080910201803108F087CD80912504909142
S1131E302604A0912704B0912804892F9A2FAB2F50
S1131E40BB27A7FDBA958093250490932604A093FD
S1131E502704B09328048091250490912604A0912E
S1131E602704B0912804BB2780932504909326046B
S1131E70A0932704B093280480912504909126040C
S1131E80A0912704B091280420918A01B22B809359
S1131E90250490932604A0932704B09328044CCDE2
S1131EA080918A0180932B045DCD80918A01809377
S1131EB02C0458CD80918A0180932D0453CD2F9208
S1131EC03F924F925F926F927F928F929F92AF92C6
S1131ED0BF92CF92DF92EF92FF920F931F93CF9313
S1131EE0DF93CDB7DEB7C755D1090FB6F894DEBF7F
S1131EF00FBECDBFFC0149875A876B877C87322E82
S1131F0066961FAF0EAF669780809180A280B380E3
S1131F10C480D580E680F78020E030E04AE754E4CE
S1131F2060857185828593850E949A256D877E8759
S1131F308F87988BC501B4010E9467282B013C014F
S1131F40C501B4010E9497256D837E838F83988792
S1131F5020E030EE4BEF54E469857A858B859C85CF
S1131F600E94B52423966CAF7DAF8EAF9FAF2397AD
S1131F70C701B6010E9497256093CF017093D001E9
S1131F808093D1019093D201C701B6010E946728C2
S1131F9060939301709394018093950190939601BB
S1131FA02EE23FE24BE15CE46D817E818F81988576
S1131FB00E94B8272D813E814F8158850E94B82701
S1131FC04B015C012BE335E24AE15CE4C301B2015D
S1131FD00E94B827A30192010E94B8276B017C01DB
S1131FE09B01AC01C501B4010E94B624698F7A8FAC
S1131FF08B8F9C8F0E94712869877A878B879C8737
S11320009B01AC010E94B6242D853E854F855889DD
S11320100E94B6242D853E854F8558890E94B82795
S11320206D8F7E8F8F8F98A32EE23FE24BE15CE4AD
S1132030C501B4010E94B8274B015C012BE335E2D2
S11320404AE15CE4C701B6010E94B8279B01AC01D8
S1132050C501B4010E94B624298D3A8D4B8D5C8D47
S11320600E949A259B01AC016D8D7E8D8F8D98A168
S11320700E94B6240E9471284B015C0129853A858F
S11320804B855C856D857E858F8598890E94B624F5
S1132090A50194010E949A2560966CAF7DAF8EAF26
S11320A09FAF609720E839EF44E858E4C301B201D8
S11320B00E94B8272D813E814F8158850E94B82700
S11320C06B017C01A501940169857A858B859C85CA
S11320D00E94B8279B01AC01C701B6010E949A2552
S11320E064966CAF7DAF8EAF9FAF649760962CAD56
S11320F03DAD4EAD5FAD6097C301B2010E94B827FC
S11321006B017C0164962CAD3DAD4EAD5FAD649723
S11321106D817E818F8198850E94B8279B01AC01D7
S1132120C701B6010E94B5246AA77BA78CA79DA707
S113213060962CAD3DAD4EAD5FAD60976D817E81F7
S11321408F8198850E94B8276B017C0164962CAD21
S11321503DAD4EAD5FAD6497C301B2010E94B82797
S11321609B01AC01C701B6010E94B6246EA37FA3F4
S113217088A799A72AA53BA54CA55DA5CA01B901C5
S11321800E94B6246093D3027093D4028093D50244
S11321909093D6022EA13FA148A559A5CA01B90121
S11321A00E94B6246093D7027093D8028093D90218
S11321B09093DA0220E030E040E950E46AA57BA580
S11321C08CA59DA50E94B8272AA53BA54CA55DA575
S11321D00E94B82720E030E040EC5FE30E94B52481
S11321E06093DB027093DC028093DD029093DE0245
S11321F021EE36E446EA50E46EA17FA188A599A5B4
S11322000E94B8272AA53BA54CA55DA50E94B82726
S11322106093DF027093E0028093E1029093E20204
S11322208EA19FA1A8A5B9A5B05880930B02909345
S11322300C02A0930D02B0930E022AA53BA54CA557
S11322405DA520930F023093100240931102509326
S1132250120220E030E040E450EC6EA17FA188A59A
S113226099A50E94B8272AA53BA54CA55DA50E9467
S1132270B82760931302709314028093150290930D
S113228016022AA53BA54CA55DA5CA01B9010E9469
S1132290B8276B017C012EA13FA148A559A5CA010D
S11322A0B9010E94B8279B01AC01C701B6010E9485
S11322B0B52427ED33EB4DED5FE30E94B82760931F
S11322C01702709318028093190290931A02A501C1
S11322D094016AE979E187EC95E40E949A252C96A9
S11322E06CAF7DAF8EAF9FAF2C97432D50E09A011A
S11322F02D5F3F4F429FC001439F900D529F900D11
S113230011249595879524968FAF2497882309F4F3
S113231095C4198E31E039871D8641E049A351E007
S11323205D8F1BAE1CAE1DAE1EAE1EAA1FAA18AE3C
S113233019AE28961CAE1DAE1EAE1FAE28971AAA63
S11323401BAA1CAA1DAA93C18D83A82FAF5FA9A3A2
S11323502985253008F481C43D814D85341709F45D
S113236029C3FD81FF9F80011124298D229FB00183
S11323701124601B710B882777FD8095982F0E948C
S113238035260E9471284B015C01398D632F70E062
S113239080E090E00E9435262B013C0120E030E0F3
S11323A040E85FE30E94B52469837A838B839C832E
S11323B09B01AC010E94B8276B017C01B8018827FE
S11323C077FD8095982F0E9435269B01AC01C701AB
S11323D0B6010E94B5240E947128A50194010E94AF
S11323E09A256B017C01A3019201C301B2010E94F1
S11323F0B62420E030E040E85FE30E94B524A50164
S113240094010E949A256AA37BA38CA39DA349856A
S1132410242F30E05D85852F90E03A8B298B1901BC
S1132420281A390AD101A81BB90B11966896BFAFB7
S1132430AEAF689720E030E040E85FE3C301B2014B
S11324400E94B6244B015C012AA53BA54CA55DA5C1
S11324506AA17BA18CA19DA10E94B827220C331CE8
S1132460220C331CF101E153FD4FFFA7EEA720819D
S11324703181428153810E94B827A30192010E94B5
S11324809A256D8B7E8B8F8B988F68962EAD3FAD82
S11324906897220F331F220F331F68963FAF2EAF6A
S11324A06897F901E153FD4F2081318142815381C5
S11324B0C701B6010E94B82729813A814B815C810A
S11324C00E949A259B01AC016D897E898F89988D24
S11324D00E94B5249B01AC01C501B4010E94B82738
S11324E0162F7D8B8AAF092F49895A89440F551FAE
S11324F0440F551F5A8349839A0121533D4F862F18
S1132500972FAAADB02FF90180839183A283B3835F
S1132510F101E95FFD4F20813181428153816AA538
S11325207BA58CA59DA50E94B8274B015C01AEA597
S1132530BFA52D913D914D915C916EA17FA188A580
S113254099A50E94B827A30192010E949A259B0194
S1132550AC01C501B4010E94B5242AA13BA14CA140
S11325605DA10E94B8274B015C016896EEADFFADFA
S11325706897E95FFD4F2081318142815381C70112
S1132580B6010E94B8279B01AC01C501B4010E94A9
S1132590B5242B013C01E981FA81E95FFD4F608399
S11325A07183828393832D883AACBD8DAB2EB12C7D
S11325B0F501EE0FFF1FEE0FFF1FEA55FB4FC5900D
S11325C0D590E590F490F501EE0FFF1FEE0FFF1F7D
S11325D0EA56FE4F259135914591549123966CAD61
S11325E07DAD8EAD9FAD23970E94B8279B01AC01B2
S11325F0C701B6010E94B6242BAD3CAD4DAD5EAD16
S11326000E94B8276B017C01ED81E11156C0A30142
S113261092010E94B8279B01AC016AA97BA98CA9ED
S11326209DA90E94B6246AAB7BAB8CAB9DAB212FDA
S1132630322D432D502FC701B6010E94B8279B01AC
S1132640AC016EA97FA988AD99AD0E94B5246EAB8B
S11326507FAB88AF99AFFD8DFF5FFD8F39853F5FFD
S1132660398724964FAD2497431708F42CC189A1C8
S11326709D85981708F068CEBD85BF5FBD876B2F19
S113268070E06E5F7F4F882777FD8095982F0E94BA
S113269035269B01AC012C966CAD7DAD8EAD9FAD06
S11326A02C970E941B286BAF7CAF8DAF9EAFED853E
S11326B0E98FF1E0F9A31D824BCEC5010196FC011F
S11326C0EE0FFF1FEE0FFF1FEA55FB4F859095900D
S11326D0A590B490FC01EE0FFF1FEE0FFF1FEA560A
S11326E0FE4F259135914591549123966CAD7DAD66
S11326F08EAD9FAD23970E94B8279B01AC01C50105
S1132700B4010E94B6242BAD3CAD4DAD5EAD0E942C
S1132710B827698B7A8B8B8B9C8B3D81232F30E080
S11327203E8B2D8BC901880F991F880F991FFC01BF
S1132730E553FE4F20813181428153812D833E83B5
S11327404F8358879C0121573E4FD9018D919D910C
S11327500D90BC91A02D89839A83AB83BC83A70180
S113276096016D817E818F8198850E94B8274B01E7
S11327705C0129893A894B895C8969817A818B81D9
S11327809C810E94B8279B01AC01C501B4010E9441
S1132790B6244B015C01A30192010E94B8279B015E
S11327A0AC016AA97BA98CA99DA90E94B6246AAB35
S11327B07BAB8CAB9DAB212F322D432D502FC5010C
S11327C0B4010E94B8279B01AC016EA97FA988AD12
S11327D099AD0E94B5246EAB7FAB88AF99AF20E072
S11327E030E0A9016EA17FA188A599A50E94AD271B
S11327F029813A814B815C8118160CF0EEC1C70126
S1132800B6010E94B8276B017C012D813E814F8166
S1132810588569897A898B899C890E94B8279B018C
S1132820AC01C701B6010E94B5246B017C01ED899E
S1132830FE89BF01882777FD8095982F0E94352651
S11328409B01AC01C701B6010E94B827212F322D8C
S1132850432D502F0E94B8276B017C01F98D6F2FF7
S113286070E080E090E00E94352620E030E040E80F
S11328705FE30E94B6242EA13FA148A559A50E945A
S1132880B8279B01AC01C701B6010E949A259B01A0
S1132890AC0128966CAD7DAD8EAD9FAD28970E949E
S11328A0B62428966CAF7DAF8EAF9FAF28972D8D41
S11328B02E5F2D8F39853F5F398724964FAD24973E
S11328C0431708F0D4CE60962CAD3DAD4EAD5FAD50
S11328D060976EA97FA988AD99AD0E94B8276B0156
S11328E07C0160962CAD3DAD4EAD5FAD60976AA99D
S11328F07BA98CA99DA90E94B8274B015C01649611
S11329002CAD3DAD4EAD5FAD64976EA97FA988AD8A
S113291099AD0E94B8279B01AC01C501B4010E9486
S1132920B6246696AEADBFAD66976D937D938D93D9
S11329309C93139728962CAD3DAD4EAD5FAD289773
S113294014962D933D934D935C93179764962CADF9
S11329503DAD4EAD5FAD64976AA97BA98CA99DA9D5
S11329600E94B8279B01AC01C701B6010E94B5249F
S11329706696EEADFFAD6697608771878287938711
S1132980C95ADF4F0FB6F894DEBF0FBECDBFDF913B
S1132990CF911F910F91FF90EF90DF90CF90BF9058
S11329A0AF909F908F907F906F905F904F903F90EB
S11329B02F900895832F90E09E8B8D8BBC018827E8
S11329C077FD8095982F0E9435266B017C019B0131
S11329D0AC0160E070E080E09FE30E949A259B01D7
S11329E0AC0160E070E080E89FE30E94B5240E949F
S11329F071284B015C01A9850A2F10E03801ED898B
S1132A00FE896E1A7F0AF1E06F1A7108A701960118
S1132A1060E070E080E89FE30E949A2520E030E0C7
S1132A2040E85FE30E94B624A50194010E94B82700
S1132A302EA13FA148A559A50E94B827660C771C72
S1132A40660C771C930121533D4F3A832983D901A6
S1132A502D913D914D915C910E94B827362E272EE1
S1132A60898B9AA3000F111F000F111F9801215386
S1132A703D4F832D922DA989BAA1F90180839183B9
S1132A80A283B383F301E95FFD4F20813181428149
S1132A9053816EA17FA188A599A50E94B8272B0117
S1132AA03C01A981BA812D913D914D915C916AA51A
S1132AB07BA58CA59DA50E94B827A70196010E941D
S1132AC09A259B01AC01C301B2010E94B624A50161
S1132AD094010E94B8272B013C01F801E95FFD4FE6
S1132AE060837183828393830D891E890150110948
S1132AF0C090CF01D090D001E090D101F090D201EC
S1132B00000F111F000F111FF801E553FE4F8080C5
S1132B109180A280B380ED89FE89EE0FFF1FEE0F36
S1132B20FF1FFE8BED8BE157FE4FFA83E9830157BC
S1132B301E4FD8012D913D914D915C91C701B60175
S1132B400E94B8276EA77FA788AB99AB2091930109
S1132B50309194014091950150919601C501B401C1
S1132B600E94B8279B01AC016EA57FA588A999A9ED
S1132B700E94B624E981FA816083718382839383FE
S1132B802D893E8925533E4F3A832983A50194011B
S1132B90C701B6010E94B8276B017C012091930103
S1132BA0309194014091950150919601D8016D9115
S1132BB07D918D919C910E94B8279B01AC01C70126
S1132BC0B6010E94B524E981FA816083718382830E
S1132BD09383132D39880AA1E8CCC701B6010E945A
S1132BE0B8276B017C012D813E814F81588569890D
S1132BF07A898B899C890E94B8279B01AC01C70103
S1132C00B6010E94B524A30192010E94B8272AA507
S1132C103BA54CA55DA50E94B8279B01AC01289655
S1132C206CAD7DAD8EAD9FAD28970E94B6242896DD
S1132C306CAF7DAF8EAF9FAF289739CE1EAA1FAA67
S1132C4018AE19AE28961CAE1DAE1EAE1FAE289748
S1132C501AAA1BAA1CAA1DAA36CE822F90E0880F9E
S1132C60991F880F991FFC01E95FFD4F4080518037
S1132C7062807380FC01E153FD4F1081218032801A
S1132C80038193CCCF93DF93CBE9D0E01882AAE9F8
S1132C90B0E01C92EDE9F0E01082888182608883C4
S1132CA08C9188698C9380818660808387E6809389
S1132CB0990010929800DF91CF910895EF92FF92BE
S1132CC00F931F93CF93DF9380E50E949F240E946C
S1132CD0A324082F10E0102F00270E94A324082B00
S1132CE0B80180E090E00E94332620E030E64AE616
S1132CF056E40E949A256093580470935904809373
S1132D005A0490935B040E94A324C82FD0E0DC2FC4
S1132D10CC270E94A324C82BBE0180E090E00E942F
S1132D20332620E030E64AE656E40E949A25609372
S1132D305C0470935D0480935E0490935F040E942E
S1132D40A324E82EF12CFE2CEE240E94A324E82ACE
S1132D50B70180E090E00E94332620E030E64AE6A6
S1132D6056E40E949A2560936004709361048093F2
S1132D70620490936304013385E71807A8F0B8014F
S1132D80882777FD8095982F0E94352620E030E62D
S1132D904AE656E40E949A256093580470935904B5
S1132DA080935A0490935B04C13385E7D807A8F055
S1132DB0BE01882777FD8095982F0E94352620E054
S1132DC030E64AE656E40E949A2560935C047093C8
S1132DD05D0480935E0490935F0481E3E81685E7C5
S1132DE0F806A8F0B701882777FD8095982F0E94F0
S1132DF0352620E030E64AE656E40E949A256093A0
S1132E006004709361048093620490936304DF917F
S1132E10CF911F910F91FF90EF90089533DF0E949F
S1132E206D0B0E9434240E948E2480EF8ABB80EEB6
S1132E308BBB2FEF82E597E0215080409040E1F773
S1132E4000C00000789410927504109276041092D9
S1132E507704109278041092790410927A041092F4
S1132E607B0410927C040E94280520917504309103
S1132E7076044091770450917804609179047091BC
S1132E807A0480917B0490917C04A2E00E94EF2953
S1132E902093750430937604409377045093780418
S1132EA06093790470937A0480937B0490937C04F8
S1132EB0DACFCF93DF93FC01EB0140815181628132
S1132EC07381488359836A837B83448155816681F6
S1132ED077814C835D836E837F8380859185A28512
S1132EE0B38588879987AA87BB87DF91CF91089597
S1132EF0DC01FB0184E04D915D916D917D914193E5
S1132F005193619371938150B1F708954F925F92F9
S1132F106F927F928F929F92AF92BF92CF92DF92E5
S1132F20EF92FF92FC0160817181828193818480A0
S1132F309580A680B780C084D184E284F3849B0109
S1132F40AC010E94B8272B013C01A5019401C501E5
S1132F50B4010E94B8279B01AC01C301B2010E94D5
S1132F60B6244B015C01A7019601C701B6010E947A
S1132F70B8279B01AC01C501B4010E94B624FF909F
S1132F80EF90DF90CF90BF90AF909F908F907F9005
S1132F906F905F904F900C9471284F925F926F9254
S1132FA07F928F929F92AF92BF92CF92DF92EF92D5
S1132FB0FF92CF93DF9300D000D0CDB7DEB7FC01F2
S1132FC0608171818281938184809580A680B7809D
S1132FD0C084D184E284F3844484558466847784F1
S1132FE09B01AC010E94B82769837A838B839C83FD
S1132FF0A5019401C501B4010E94B8279B01AC014D
S113300069817A818B819C810E94B6244B015C0189
S1133010A7019601C701B6010E94B8279B01AC0124
S1133020C501B4010E94B6246B017C01A301920185
S1133030C301B2010E94B8279B01AC01C701B601CC
S11330400E94B6240F900F900F900F90DF91CF91B4
S1133050FF90EF90DF90CF90BF90AF909F908F90B4
S11330607F906F905F904F900C947128CF92DF9275
S1133070EF92FF920F931F93CF93DF93EC018B0199
S1133080FB012081318142815381688179818A8168
S11330909B810E94B8276B017C01F8012481358152
S11330A0468157816C817D818E819F810E94B827E2
S11330B09B01AC01C701B6010E94B6246B017C01DF
S11330C0F8012085318542855385688579858A850F
S11330D09B850E94B8279B01AC01C701B6010E94E1
S11330E0B624DF91CF911F910F91FF90EF90DF9065
S11330F0CF900895DF92EF92FF920F931F93CF9397
S1133100DF937C018B01EA01D12CF701619171916C
S1133110819191917F01F8012191319141915191D6
S11331208F010E94B6246993799389939993D394D8
S1133130F3E0DF12EACFDF91CF911F910F91FF905F
S1133140EF90DF9008953F924F925F926F927F923B
S11331508F929F92AF92BF92CF92DF92EF92FF92A3
S11331600F931F93CF93DF93382E892E5B017A013F
S1133170C12CD12CF7011082118212821382032DEB
S1133180182DE501CC0DDD1D83E0982E412C512C2A
S11331903201F80161917191819191918F0128819E
S11331A039814A815B810E94B8279B01AC01C3012C
S11331B0B2010E94B6242B013C01F70160837183A4
S11331C0828393839A942C969110E3CFF4E0EF0ECC
S11331D0F11C84E0C80ED11CECE0CE16D10451F6EB
S11331E0DF91CF911F910F91FF90EF90DF90CF90DF
S11331F0BF90AF909F908F907F906F905F904F9013
S11332003F900895AF92BF92CF92DF92EF92FF92D8
S11332100F931F93CF93DF93EC018B015A01FB01B2
S113322020853185428553856C817D818E819F8186
S11332300E94B8276B017C01F80124813581468105
S11332405781688579858A859B850E94B8279B016B
S1133250AC01C701B6010E94B524F50160837183F6
S113326082839383F801208131814281538168856F
S113327079858A859B850E94B8276B017C01F801BA
S11332802085318542855385688179818A819B8136
S11332900E94B8279B01AC01C701B6010E94B52466
S11332A0F5016483758386839783F80124813581CE
S11332B046815781688179818A819B810E94B827E0
S11332C06B017C01F80120813181428153816C8141
S11332D07D818E819F810E94B8279B01AC01C7012B
S11332E0B6010E94B524F5016087718782879387B0
S11332F0DF91CF911F910F91FF90EF90DF90CF90CE
S1133300BF90AF900895CF92DF92EF92FF92CF9348
S1133310DF93EC016A017B019A01AB016881798139
S11333208A819B810E94B827688379838A839B83DF
S1133330A70196016C817D818E819F810E94B827AF
S11333406C837D838E839F83A7019601688579852D
S11333508A859B850E94B827688779878A879B8797
S1133360DF91CF91FF90EF90DF90CF900895CF92AF
S1133370DF92EF92FF921F93CF93DF936A017B0159
S1133380EC0110E0A7019601688179818A819B8113
S11333900E94B82769937993899399931F5F143096
S11333A089F7DF91CF911F91FF90EF90DF90CF903D
S11333B00895CF92DF92EF92FF92CF93DF93EC01C7
S11333C0A5DD6B017C019B01AC01688179818A8157
S11333D09B810E949A25688379838A839B83A701B2
S11333E096016C817D818E819F810E949A256C83D8
S11333F07D838E839F83A7019601688579858A855D
S11334009B850E949A25688779878A879B87DF91A5
S1133410CF91FF90EF90DF90CF900895CF92DF92FD
S1133420EF92FF920F931F93CF93DF938C01B5DD3F
S11334306B017C01E80110E0A701960168817981A4
S11334408A819B810E949A256993799389939993A0
S11334501F5F143089F7DF91CF911F910F91FF9077
S1133460EF90DF90CF900895579A08950C944024DC
S113347025CCEF92FF920F931F93CF93DF9310927B
S11334803304109232046091050470910604809113
S113349007049091080403EA13E00E94352620E013
S11334A030E048EC52E40E949A25F801608371836D
S11334B0828393836091090470910A0480910B04C0
S11334C090910C04C7EAD3E00E94352620E030E056
S11334D048EC52E40E949A25688379838A839B830B
S11334E060910D0470910E0480910F04909110046A
S11334F02BEAE22E23E0F22E0E94352620E030E073
S113350048EC52E40E949A25F70160837183828318
S1133510938360911104709112048091130490912B
S113352014040E9435266093970370939803809344
S1133530990390939A0360911504709116048091F5
S11335401704909118040E94352660939B0370938E
S11335509C0380939D0390939E0360911904709142
S11335601A0480911B0490911C040E9435266093D8
S11335709F037093A0038093A1039093A2030E94DE
S11335801706F80180819181A281B3818093BF03E2
S11335909093C003A093C103B093C203888199811F
S11335A0AA81BB818093C3039093C403A093C503F2
S11335B0B093C603F70180819181A281B381809386
S11335C0C7039093C803A093C903B093CA036BECD9
S11335D073E0C8010E94BD0763EB73E087E993E0E1
S11335E00E94BD0760911D0470911E0480911F0408
S11335F0909120040E94352620E836E948E15BE4F6
S11336000E949A2525E33AEF4EE85CE30E94B8272E
S113361060937D0470937E0480937F049093800470
S113362060912104709122048091230490912404D8
S11336300E94352620E836E948E15BE40E949A2599
S113364025E33AEF4EE85CE30E94B82760938104D7
S113365070938204809383049093840410920601EF
S1133660DF91CF911F910F91FF90EF9008954F92AA
S11336705F926F927F928F929F92AF92BF92CF92FE
S1133680DF92EF92FF920F931F93CF93DF93CDB707
S1133690DEB764970FB6F894DEBF0FBECDBF8C01C2
S11336A08FEB93E033DC2B013C019B01AC010E94C6
S11336B0B8279B01AC0161EB7AE186E791E50E94B2
S11336C09A256D877E878F87988B20E030E040E4D1
S11336D050E4C301B2010E941B286B017C0120E06D
S11336E030E040E850E4C301B2010E941B282B01E2
S11336F03C018090C7039090C803A090C903B09088
S1133700CA03A5019401C501B4010E94B82728E9A0
S113371038E045E05CE30E94B8272AEC3EEF43E141
S113372056E50E94B827A30192010E949A25698B4D
S11337307A8B8B8B9C8B20E030E040E85FE36D85D7
S11337407E858F8598890E94B62429893A894B8978
S11337505C890E94B5242B013C0121EF39E445EB3F
S113376057ED6091BF037091C0038091C1039091A4
S1133770C2030E94B827A30192010E94B827A7019F
S113378096010E949A2569837A838B839C8321EF17
S113379039E445EB57ED6091C3037091C403809104
S11337A0C5039091C6030E94B8279B01AC01C301D5
S11337B0B2010E94B827A70196010E949A256D8341
S11337C07E838F83988721EF39E445EB57EDC5015C
S11337D0B4010E94B8272B013C0120E030E040E412
S11337E050E46D857E858F8598890E94B82720E0F6
S11337F030E040E85FE30E94B62429893A894B8986
S11338005C890E94B5249B01AC01C301B2010E94F2
S1133810B827A70196010E949A2569877A878B8722
S11338209C87B801CE0101960E94BD0764960FB62D
S1133830F894DEBF0FBECDBFDF91CF911F910F91E2
S1133840FF90EF90DF90CF90BF90AF909F908F90BC
S11338507F906F905F904F9008959F92AF92BF9228
S1133860CF92DF92EF92FF920F931F93CF93DF9348
S1133870CDB7DEB768970FB6F894DEBF0FBECDBFE5
S11338804AE0942ECE0149965C01CE010D96EFDEFE
S1133890BE016F5F7F4F83EB93E00BDBFE013D9630
S11338A07F0103EB13E0F701619171918191919193
S11338B07F012DEC3CEC4CE45EE30E94B8279B01B5
S11338C0AC01F80160817181828193810E94B624E8
S11338D0F80161937193819391938F01EA14FB042E
S11338E011F7CE0101966C013BECE32E33E0F32E8D
S11338F003EB13E0F80161917191819191918F0132
S1133900F60121913191419151916F010E94B624A8
S113391020E030E040E05FE30E94B8272DEC3CEC6F
S11339204CE45EE30E94B8279B01AC01F70160817F
S11339307181828193810E94B624F701619371930E
S1133940819391937F01F3E00F3B1F0799F69A94BB
S113395009F09BCF68960FB6F894DEBF0FBECDBFBB
S1133960DF91CF911F910F91FF90EF90DF90CF9057
S1133970BF90AF909F9008954F925F926F927F9205
S11339808F929F92AF92BF92CF92DF92EF92FF926B
S11339900F931F93CF93DF93CDB7DEB72C970FB65A
S11339A0F894DEBF0FBECDBF8C012091FD03309192
S11339B0FE034091FF035091000460910104709153
S11339C0020480910304909104040E94702620E074
S11339D030EC48EA57E40E949A252BED3FE049EC8D
S11339E050E40E94B82721ED30EA46EB53E40E94EC
S11339F09A254B015C010E94672820E93EE24CECC9
S1133A005EE30E94B8270E941A256B017C01C50160
S1133A10B4010E9497252B013C01C701B6010E9405
S1133A2097254B015C019B01AC01C301B2010E94CB
S1133A309A258DD72B013C0120E030E0A901C70174
S1133A40B6010E94AD2787FF09C0A30192016BED67
S1133A507FE089EC90E489D72B013C01C301B201DA
S1133A600E9497259B01AC01C501B4010E94B827AF
S1133A7069837A838B839C83C301B2010E94672884
S1133A809B01AC01C501B4010E94B8276D837E83FC
S1133A908F839887C701B6010E94672869877A8750
S1133AA08B879C872DEC3CEC4CEC5DE36091AF0381
S1133AB07091B0038091B1039091B20357D7609392
S1133AC0AF037093B0038093B1039093B203980152
S1133AD0AE014F5F5F4F63EB73E08BEC93E00E94AA
S1133AE0CE082C960FB6F894DEBF0FBECDBFDF9183
S1133AF0CF911F910F91FF90EF90DF90CF90BF90E7
S1133B00AF909F908F907F906F905F904F900895AB
S1133B10AF92BF92CF92DF92EF92FF920F931F93D7
S1133B20CF93DF93CDB7DEB7E0970FB6F894DEBF3F
S1133B300FBECDBF5C012091F5033091F603409197
S1133B40F7035091F8036091F9037091FA0380919F
S1133B50FB039091FC030E94702620EC39E940EFAE
S1133B605BE4E8D720E030EE4BEF54E4FFD66B0182
S1133B707C01BE016B5D7F4F8BEC93E00E94440897
S1133B80BE01675E7F4FCE0185960E9480096DE776
S1133B9074E0CE0149968DD98E01035F1F4F28E052
S1133BA0B701A601CE0149960E945F0FAE014B5D9D
S1133BB05F4FBE01675E7F4FC8010E94B80ABE0115
S1133BC06F5F7F4FCE0185960E94BD079501AE01C0
S1133BD04F5F5F4F63EB73E08BEC93E00E94CE0882
S1133BE04FE550E769E870E3C5018DDBE0960FB659
S1133BF0F894DEBF0FBECDBFDF91CF911F910F911F
S1133C00FF90EF90DF90CF90BF90AF9008952F92E8
S1133C103F924F925F926F927F928F929F92AF9258
S1133C20BF92CF92DF92EF92FF920F931F93CF93A5
S1133C30DF93CDB7DEB7CC57D1090FB6F894DEBF0A
S1133C400FBECDBF3C018B01E1965FAF4EAFE19754
S1133C50F901C08080E4E82E84E0F82ED12CF7012D
S1133C6061917191819191917F0125EC3EEF42E93F
S1133C705EE359D787FDD394F8E5EF16F4E0FF0629
S1133C8071F786E0D81609F457C2C11009C08091B3
S1133C90F3039091F40302969093F4038093F30357
S1133CA080910701811104C01092F4031092F30370
S1133CB0C0904004D0904104E0904204F09043044A
S1133CC08090440490904504A0904604B09047042A
S1133CD0A5019401C701B6010E94AD271E01181663
S1133CE00CF421C291E6290E311CB7FAB094B7F84E
S1133CF0B094F10180829182A282B382C090480480
S1133D00D0904904E0904A04F0904B0480904C0415
S1133D1090904D04A0904E04B0904F04A5019401DE
S1133D20C701B6010E94AD2718160CF425C2B7FAD4
S1133D30B094B7F8B094F10184829582A682B782D8
S1133D40C0905004D0905104E0905204F090530479
S1133D508090540490905504A0905604B090570459
S1133D60A5019401C701B6010E94AD2718160CF4F1
S1133D70FDC1B7FAB094B7F8B094F101808691868A
S1133D80A286B386C10115DB809158049091590431
S1133D90A0915A04B0915B0469968CAF9DAFAEAF0D
S1133DA0BFAF699780915C0490915D04A0915E041B
S1133DB0B0915F046D968CAF9DAFAEAFBFAF6D9702
S1133DC08091600490916104A0916204B0916304B5
S1133DD0A1968CAF9DAFAEAFBFAFA197AE01475BCD
S1133DE05F4FB101CE018B5A9F4F0CDACE01875B36
S1133DF09F4FDFDACE01CD96AF969FAF8EAFAF97D0
S1133E00AC01B801C301FED9CE01CD96D2DABE0110
S1133E10635C7F4FCE01875B9F4F28D96B017C0188
S1133E20B301CE018B5A9F4F21D94B015C01B801DC
S1133E30C1011CD9E5966CAF7DAF8EAF9FAFE597FE
S1133E4020E030E040E85FE3C701B6018FD56B01A5
S1133E507C0126E636E646E65FE3C501B4010E942E
S1133E60B8274B015C0120ED3CEC4CEC5DE3E5969E
S1133E706CAD7DAD8EAD9FADE5970E94B8279B01DB
S1133E80AC01C501B40172D59B01AC01C701B601F7
S1133E900E94B8276B017C01AE01475E5F4FB301FE
S1133EA0CE018B5A9F4FAED9AE01435F5F4FB8012D
S1133EB0C101A8D98E01075E1F4FFE013D965F0127
S1133EC04E01F5E28F0E911CF8016191719181917F
S1133ED091918F0126E636E646E65FE30E94B82715
S1133EE02B013C0120ED3CEC4CEC5DE3F5016081E1
S1133EF07181828193810E94B8279B01AC01C30127
S1133F00B20134D5F50161937193819391935F016B
S1133F1008151905C9F6AE014F5C5F4FBE01635C1D
S1133F207F4FCE01875B9F4F6DD9BE01635F7F4F8B
S1133F30CE01C1969BD8A701960118D56B017C01CF
S1133F40A801BE01635C7F4FCE01875B9F4FD2D82F
S1133F50BE01635F7F4FC80189D82B013C01A701D3
S1133F609601C701B6010E94B8274B015C01A30169
S1133F709201C301B201FCD79B01AC01C501B4019C
S1133F80F5D40E9471284B015C0120E030E0A901C6
S1133F90C701B601E2D7A701960118160CF0F2C0CA
S1133FA0C501B401E3D46B017C01A5019401E0D700
S1133FB04B015C01BE01635C7F4FCE01875B9F4F69
S1133FC055D820E030E040E85FE3D0D49B01AC0159
S1133FD0C501B401CDD70E9471289B01AC01C6D4A0
S1133FE09B01AC0160E070E080E89FE3A3D5ED960F
S1133FF06CAF7DAF8EAF9FAFED97CE01C1961C0124
S1134000FE013196E396FFAFEEAFE397E9964CAE2F
S11340105DAE6EAE7FAEE997F10121913191419190
S113402051911F01F80141905190619071908F015D
S1134030C701B6019DD74B015C01E9962CAD3DAD9E
S11340404EAD5FADE997C301B20192D79B01AC01BC
S1134050C501B4018BD4E396EEADFFADE397619354
S1134060719381939193E396FFAFEEAFE397AF968D
S11340708EAD9FADAF972816390671F6B101CE010A
S1134080875B9F4F0E94361820E030E040E85FE3F2
S11340906DD49B01AC01C701B6016AD709811A81AD
S11340A02B813C81E196EEADFFADE1970083118356
S11340B0228333830D811E812F81388504831583E8
S11340C02683378309851A852B853C8500871187CC
S11340D0228733876487758786879787ED964CADEB
S11340E05DAD6EAD7FADED97CF0141D981E0809399
S11340F00701C458DF4F0FB6F894DEBF0FBECDBF23
S1134100DF91CF911F910F91FF90EF90DF90CF90AF
S1134110BF90AF909F908F907F906F905F904F90E3
S11341203F902F900895F1E62F0E311CF101C082CB
S1134130D182E282F382E2CDE196EEADFFADE1976A
S113414010821182128213821482158216821782BF
S1134150108611861286138680E090E0A0E8BFE303
S113416084879587A687B78780E0C1CFF101C08691
S1134170D186E286F38606CEF101C482D582E68238
S1134180F782DECDC501B401F0D3E9966CAF7DAF03
S11341908EAF9FAFE997A5019401EAD66B017C012C
S11341A0BE01635C7F4FCE01875B9F4F0E94361830
S11341B020E030E040E85FE3D9D39B01AC01C701C4
S11341C0B601D6D68ED79B01AC01D0D39B01AC01EE
S11341D060E070E080E89FE3ADD4ED966CAF7DAF16
S11341E08EAF9FAFED97FE01F1961F01CE010196B0
S11341F0E3969FAF8EAFE397F10161917191819145
S113420091911F01F80181909190A190B1908F013B
S1134210A3019201ADD66B017C01A5019401E9963D
S11342206CAD7DAD8EAD9FADE997A2D69B01AC017F
S1134230C701B6019BD3E396EEADFFADE39761935F
S1134240719381939193E396FFAFEEAFE397AF96AB
S11342508EAD9FADAF972816390671F6B101CE0128
S1134260875B9F4F0E94361820E030E040E85FE310
S11342707DD3A30192017CD611CF2F923F924F920E
S11342805F926F927F928F929F92AF92BF92CF92E2
S1134290DF92EF92FF920F931F93CF93DF93CDB7EB
S11342A0DEB7C05DD1090FB6F894DEBF0FBECDBF37
S11342B0C353DF4F8883CD5CD040C253DF4F988314
S11342C0CE5CD040C153DF4F6883CF5CD040C05335
S11342D0DF4F7883C05DD0407C0103EE13E09E0184
S11342E023593F4F6901AE0143585F4F1A01D7016B
S11342F08D909D90AD90BD907D01F80141905190BD
S1134300619071908F01A3019201C501B4012DD375
S113431020E030E040E05FE32BD6D1016D937D9344
S11343208D939D931D01A3019201C501B4011ED378
S113433020E030E040E05FE31BD6F6016193719327
S1134340819391936F01F3E0033F1F0781F69E0170
S113435027563F4FCE018B559F4F4DE750E04C0FF2
S11343605D1F445F5F4FDE01A359BF4FFE01E35859
S1134370FF4F7C01B901CD0101911191219131913E
S1134380DB010D931D932D933D93BD01DC010D9134
S11343901D912D913D91CD01D7010D931D932D9329
S11343A03D937D01E417F50739F7ED962CAD3DAD4E
S11343B04EAD5FADED97C954DF4F288339834A83EF
S11343C05B83C75BD0401DA21EA21FA218A6C355C3
S11343D0DF4F88809980AA80BB80CD5AD04020E0EE
S11343E030E040E050ECC501B401C2D569A77AA71A
S11343F08BA79CA7C755DF4FC880D980EA80FB8074
S1134400C95AD040A7019601C701B601AFD26DA722
S11344107EA78FA798ABA5019401C501B401A6D2CC
S113442069AB7AAB8BAB9CAB1DAA1EAA1FAA18AEB4
S1134430AE014B555F4FFA0181919191A191B191D8
S1134440CB53DF4FF983E883C55CD040CF53DF4FB4
S113445088839983AA83BB83C15CD04020E030E089
S113446040E050ECBC01CD0183D569AF7AAF8BAF8E
S11344709CAF20E030E040E050ECC701B60178D5B5
S113448021966CAF7DAF8EAF9FAF2197CF53DF4F97
S1134490288139814A815B81C15CD040CA01B9015C
S11344A065D225966CAF7DAF8EAF9FAF25972996C9
S11344B01CAE1DAE1EAE1FAE2997C954DF4F288116
S11344C039814A815B81C75BD040CA01B9014ED2B0
S11344D02B013C0169837A838B839C831D821E821A
S11344E01F82188619861A861B861C861D861E86C0
S11344F01F86188A698B7A8B8B8B9C8B1D8A1E8AEC
S11345001F8A188E198E1A8E1B8E1C8E1D8E1E8E5F
S11345101F8E18A269A37AA38BA39CA39E012F5F6D
S11345203F4FC554DF4F39832883CB5BD040AE0166
S11345304B5D5F4FC354DF4F59834883CD5BD040FD
S1134540CE01875B9F4FC154DF4F99838883CF5B34
S1134550D040CB53DF4FA881B981C55CD040C5534F
S1134560DF4FB983A883CB5CD040CF53DF4F688142
S113457079818A819B81C15CD04023E0222E812CE9
S1134580912C5401022DC953DF4F488259826A820B
S11345907B82C75CD0409B01AC01E8D12B013C017C
S11345A0CB53DF4F28813981C55CD040CD54DF4FD8
S11345B039832883C35BD040C354DF4F488159817A
S11345C0CD5BD0404C5F5F4FCB54DF4F5983488362
S11345D0C55BD040C554DF4F88819981CB5BD04007
S11345E00496CF54DF4F99838883C15BD040C15474
S11345F0DF4F28803980CF5BD040CF53DF4FC88056
S1134600D980EA80FB80C15CD04013E0C953DF4FFE
S1134610688179818A819B81C75CD040A50194011E
S1134620A4D14B015C01A7019601C301B201A0D43E
S1134630C954DF4F288139814A815B81C75BD040EF
S113464079D29B01AC01C501B40190D1D1016D9324
S11346507D938D939C9313971150BCE02B0E311CCA
S1134660112389F1CF54DF4FE881F981C15BD04038
S11346706191719181919191CF54DF4FF983E883D6
S1134680C15BD040CB54DF4FA881B981C55BD0401A
S11346902D913D914D915D91CB54DF4FB983A8830A
S11346A0C55BD040CD54DF4FE881F981C35BD04076
S11346B0C190D190E190F190CD54DF4FF983E8831C
S11346C0C35BD040ADCF0150C554DF4FE881F981C1
S11346D0CB5BD0403C96C554DF4FF983E883CB5B7A
S11346E0D040C354DF4F28813981CD5BD040245F53
S11346F03F4FC354DF4F39832883CD5BD040C1542F
S1134700DF4F48815981CF5BD0404C5F5F4FC1542C
S1134710DF4F59834883CF5BD040002339F1C55321
S1134720DF4FA881B981CB5CD0406D917D918D9193
S11347309D91C553DF4FB983A883CB5CD0402081C2
S1134740318142815381C953DF4F288339834A839E
S11347505B83C75CD040C354DF4FE881F981CD5BF4
S1134760D04080809180A280B38015CFAE014357A2
S11347705F4FBE01675B7F4FCE0187569F4F0E94FC
S1134780A3188E0103571F4F97EDC92E93E0D92E1E
S1134790C153DF4FE880CF5CD040C053DF4FF88077
S11347A0C05DD04018019CE0290E311CD8016D91E8
S11347B07D918D919D918D01F60141905190619073
S11347C071906F0128E031E244E05DE3D1D34B0105
S11347D05C0120EF3DEB47E75FE3C301B201C8D3BF
S11347E09B01AC01C501B401C1D0D7016D937D9388
S11347F08D939D937D0102151305C1F663EE73E05D
S1134800C353DF4F8881CD5CD040C253DF4F9881C2
S1134810CE5CD0400E94781767ED73E0C153DF4F40
S11348208881CF5CD040C053DF4F9881C05DD040B9
S11348300E945917C053DF4F0FB6F894DEBF0FBE66
S1134840CDBFDF91CF911F910F91FF90EF90DF903B
S1134850CF90BF90AF909F908F907F906F905F901C
S11348604F903F902F90089517BA86E087BB87B387
S1134870816387BB88B3816388BB83E58DB9089561
S1134880EF92FF920F931F93CF93DF9300E010E01A
S11348905AD0E801CC0FDD1FCB5FDB4F98AB8FA75D
S11348A08FA598A9982F882798AB8FA78FA598A92B
S11348B0882798AB8FA7EFA4F8A845D08E299F2905
S11348C098AB8FA70F5F1F4F0630110509F7C0E0A3
S11348D0D0E0FE01EE0FFF1FEB5FFB4F67A570A951
S11348E080E090E0C0D123E333E343E55BE340D3CE
S11348F0FE01EE0FFF1FEE0FFF1FEF5EFB4F67A7DA
S113490070AB81AB92AB2196C630D10511F7DF9124
S1134910CF911F910F91FF90EF9008951BB81AB893
S1134920E5E9F0E01082599A8AB188618AB98081F8
S11349308E60808387E689B91092900008955D9B0C
S1134940FECF8CB908955F9BFECF8CB108959F93E1
S11349509F7704D20F9000203AF49058A2EA2AEDEF
S11349603FE049E450E413D0ADC25058BB27AA2716
S11349700ED0A8C271D230F076D220F031F49F3F2D
S113498011F41EF430C20EF4E095E7FB26C2E92FC1
S1134990BBD280F3BA17620773078407950718F030
S11349A071F49EF5D3C20EF4E0950B2EBA2FA02D10
S11349B00B01B90190010C01CA01A0011124FF27C8
S11349C0591B99F0593F50F4503E68F11A16F040C3
S11349D0A22F232F342F4427585FF3CF46953795C2
S11349E02795A795F0405395C9F77EF41F16BA0B87
S11349F0620B730B840BBAF09150A1F0FF0FBB1F35
S1134A00661F771F881FC2F70EC0BA0F621F731F7D
S1134A10841F48F4879577956795B795F7959E3FDA
S1134A2008F0B3CF9395880F08F09927EE0F979568
S1134A30879508959F939F77EEE389379E0720F427
S1134A40ECE8F0E0F8D109C089D19058A2EA2AED47
S1134A503FE049EC5FE39BDF35D20F9007FC9058B1
S1134A600895FAD158F080E891E009F49EEFFBD163
S1134A7028F040E851E059F45EEF09C0B4C166C2C1
S1134A80E92FE07841D268F3092E052AC1F32617ED
S1134A9037074807590738F00E2E07F8E02569F064
S1134AA0E025E0640AC0EF6307F8009407FADB012D
S1134AB0B9019D01DC01CA01AD01EF934AD002D2D4
S1134AC00AD05F91552331F02BED3FE049E450FDCE
S1134AD049EC4CCF0895DF93DD27B92FBF7740E829
S1134AE05FE31616170648075B0710F4D92F39D26F
S1134AF09F938F937F936F9332D3E0EAF0E076D164
S1134B00E1D12F913F914F915F913ED2DD2349F046
S1134B109058A2EA2AED3FE049EC5FE3D0785D27A4
S1134B2036DFDF91CFC135D108F481E00895A3D1F8
S1134B30E395D9C10CD0C6C196D140F08DD130F0E7
S1134B4021F45F3F19F049C1511101C24CC1DCD1BC
S1134B5098F39923C9F35523B1F3951B550BBB2740
S1134B60AA2762177307840738F09F5F5F4F220FED
S1134B70331F441FAA1FA9F333D00E2E3AF0E0E8E6
S1134B8030D091505040E695001CCAF729D0FE2F32
S1134B9027D0660F771F881FBB1F261737074807C4
S1134BA0AB07B0E809F0BB0B802DBF01FF2793587A
S1134BB05F4F2AF09E3F510568F00FC1C8C15F3FA7
S1134BC0ECF3983EDCF3869577956795B795F79562
S1134BD09F5FC9F7880F911D9695879597F908955A
S1134BE0E1E0660F771F881FBB1F621773078407F6
S1134BF0BA0720F0621B730B840BBA0BEE1F88F705
S1134C00E095089504D06894B111A1C1089584D1A8
S1134C1088F09F5790F0B92F9927B751A0F0D1F0A1
S1134C20660F771F881F991F1AF0BA95C9F712C02B
S1134C30B13081F08BD1B1E0089588C1672F782F0E
S1134C408827B85F39F0B93FCCF386957795679597
S1134C50B395D9F73EF490958095709561957F4F03
S1134C608F4F9F4F0895E89409C097FB3EF49095A9
S1134C708095709561957F4F8F4F9F4F9923A9F031
S1134C80F92F96E9BB279395F695879577956795C0
S1134C90B795F111F8CFFAF4BB0F11F460FF1BC004
S1134CA06F5F7F4F8F4F9F4F16C0882311F096E997
S1134CB011C0772321F09EE8872F762F05C0662345
S1134CC071F096E8862F70E060E02AF09A95660FFE
S1134CD0771F881FDAF7880F9695879597F90895B7
S1134CE0E894F92F96EBFF2381F0121613061406AD
S1134CF0440B9395F695879577956795579540401E
S1134D00FF23B9F71BC099270895882351F49850BD
S1134D10D2F7872B762F652F542F432F322F20E085
S1134D20B1F3121613061406440B88233AF09A952D
S1134D30440F551F661F771F881FCAF755234AF46F
S1134D40440F551F11F460FF04C06F5F7F4F8F4FF6
S1134D509F4F880F9695879597F90895DF93CF9382
S1134D601F930F938B01EC01EDECF0E03FD0AAD040
S1134D709801AE018B01EC0160E070E080E89FE3F4
S1134D80F4DDAFD19801AE010F911F91CF91DF9166
S1134D90FBC0990F0008550FAA0BE0E8FEEF1616AA
S1134DA01706E807F907C0F012161306E407F5071B
S1134DB098F0621B730B840B950B39F40A2661F08F
S1134DC0232B242B252B21F408950A2609F4A14032
S1134DD0A6958FEF811D811D089597F99F6780E83F
S1134DE070E060E008959FEF80EC0895DF93CF9327
S1134DF01F930F93FF92EF92DF927B018C016894D3
S1134E0005C0DA2EEF01C0D0FE01E894A5912591EA
S1134E10359145915591AEF3EF01B9DDFE0197014E
S1134E20A801DA9479F7DF90EF90FF900F911F912A
S1134E30CF91DF9108959F938F937F936F93FF9307
S1134E40EF939B01AC0194D0EF91FF91CFDF2F91B1
S1134E503F914F915F918CC000240A941616170657
S1134E6018060906089500240A9412161306140657
S1134E7005060895B8CF50D0E8F3E894E0E0BB27E6
S1134E809F57F0F02AED3FE049EC06C0EE0FBB0F50
S1134E90661F771F881F28F0B23A620773078407DA
S1134EA028F0B25A620B730B840BE3959A9572F750
S1134EB0803830F49A95BB0F661F771F881FD2F78E
S1134EC0904883C1092E0394000C11F4882352F0F6
S1134ED0BB0F40F4BF2B11F460FF04C06F5F7F4F22
S1134EE08F4F9F4F0895EF93E0FF06C0A2EA2AED8B
S1134EF03FE049EC5FEB4BDDE5DF0F90039401FCF1
S1134F009058E5EFF0E097CF57FD9058440F551FA8
S1134F1059F05F3F71F04795880F97FB991F61F037
S1134F209F3F79F087950895121613061406551FAE
S1134F30F2CF4695F1DF08C0161617061806991F1A
S1134F40F1CF86957105610508940895E894BB270F
S1134F5066277727CB0197F908951BDF08F48FEFB5
S1134F6008959B01AC0160E070E080E89FE3E2CD2E
S1134F700BD0A8CF71DF28F076DF18F0952309F065
S1134F802CCF31CF1124E3CFBFDFA0F3959FD1F312
S1134F90950F50E0551F629FF001729FBB27F00DE3
S1134FA0B11D639FAA27F00DB11DAA1F649F662738
S1134FB0B00DA11D661F829F2227B00DA11D621F87
S1134FC0739FB00DA11D621F839FA00D611D221F41
S1134FD0749F3327A00D611D231F849F600D211D25
S1134FE0822F762F6A2F11249F5750408AF0E1F0C8
S1134FF088234AF0EE0FFF1FBB1F661F771F881F11
S113500091505040A9F79E3F510570F0E6CE9FCFD6
S11350105F3FECF3983EDCF3869577956795B795FB
S1135020F795E7959F5FC1F7FE2B880F911D969525
S1135030879597F90895FA01EE0FFF1F3096210521
S1135040310599F16115710561F48038BFE39B075F
S113505049F168949038810561F08038BFEF9B076F
S113506041F0992342F5FF3FE1053105210511F196
S1135070E8940894E795D901AA2329F4AB2FBE2F0D
S1135080F85FD0F310C0FF5F70F4A695E0F7F7392E
S113509050F019F0FF3A38F49F779F930CD00F909B
S11350A007FC905808953EF09ECE60E070E080E8E2
S11350B09FE308954FE79F775F934F933F932F9319
S11350C0D2D02F913F914F915F9152DF50C09F9367
S11350D0D2DE0F9007FCEE5F06CF11F40EF483CE00
S11350E072C01ADFD0F39923D9F3CEF39F57550B2F
S11350F087FF77D00024A0E640EA900180585695B7
S1135100979528F4805C660F771F881F20F0261778
S11351103707480730F4621B730B840B20293129AD
S11351204A2BA69517940794202531254A2758F72A
S1135130660F771F881F20F026173707480730F4BB
S1135140620B730B840B200D311D411DA09581F75B
S1135150B901842F9158880F9695879508959B01DE
S1135160AC0106CF19F40EF038CEF0CE3CCED4DE2E
S1135170C8F39638C0F707F80F92E8942BE33AEA9D
S113518048EB5FE703DF0F920F920F924DB75EB7C4
S11351900F92A9D0E3E1F1E029DE4F915F91EF9105
S11351A0FF91E595EE1FFF1F49F0FE57E068442785
S11351B0EE0F441FFA95E1F74195550B1BD00F9064
S11351C007FECFCE08959F3F31F0915020F487958C
S11351D077956795B795880F911D9695879597F95B
S11351E0089591505040660F771F881FD2F7089595
S11351F0F4CDE9CF91DEE8F39923D9F3940F511D4F
S1135200BBF39150504094F059F0882332F0660F6C
S1135210771F881F91505040C1F79E3F510544F7B6
S1135220880F911D9695879597F908955F3FACF087
S1135230983E9CF0BB27869577956795B79508F4BB
S1135240B1609395C1F7BB0F58F711F460FFE8CF35
S11352506F5F7F4F8F4F9F4FE3CF79CE0EF0B3CF69
S1135260C2CD6894BACD58DEC8F39923D1F3C6F3FE
S1135270DF93CF931F930F93FF92C92FDD278823CA
S11352802AF02197660F771F881FDAF720E030E0B5
S113529040E85FEB9FE3883920F0803E30F02196B0
S11352A08F7764DBEBE3F1E003C060DBE8E6F1E079
S11352B09DDD8B01BE01EC01FB2E6F5771097595C5
S11352C0771F880B990BD1DC28E132E741E35FE3D8
S11352D05BDEAF2D9801AE01FF900F911F91CF912E
S11352E0DF9155DBEFCDFA01DC01AA0FBB1F9B0157
S11352F0AC01BF5728F422273327442750781FC016
S1135300B75188F4AB2F0024469537952795011C97
S1135310A395D2F3002069F0220F331F441FB395E5
S1135320DAF30DD022CB61307105A0E88A07B946C3
S113533030F49B01AC016627772788279078309654
S113534021F020833183428353830895E894DF93CB
S1135350CF93FC01DB0158D07F936F93E9019A014D
S1135360AC01BF93AF933F932F93DF014DD026F44D
S11353706C1B7D0B820B930B9E01EB01FC0153D044
S1135380AF91BF912F913F914ED0BE01CF01F90152
S11353902F913F91CF91DF9108950F93083090F0B2
S11353A0982F872F762F652F542F432F322F2227A4
S11353B00850F4CF220F331F441F551F661F771F59
S11353C0881F991F0A95B2F70F9108952A0D3B1D66
S11353D04C1D5D1D6E1D7F1D801F911F08950024AF
S11353E0A7FD00942A0F301D401D501D601D701D27
S11353F0801D901D08952A193B094C095D096E0909
S11354007F09800B910B0895A29FB001B39FC00147
S1135410A39F700D811D1124911DB29F700D811DDC
S11354201124911D0895F0DF460F571FC81FD91F7F
S10D543008F431960895F894FFCFB4
S113543A01FFFFFFFFFFFF011F0000000000000043
S113544A3B000000000000005A00000000000000B9
S113545A780000000000000097000000000000002F
S113546AB500000000000000D400000000000000A5
S113547AF300000000000000110100000000000019
S113548A30010000000000004E010000000000008E
S9030000FC
